{
  "_format": "hh-sol-artifact-1",
  "contractName": "Payments",
  "sourceName": "contracts/Payments.sol",
  "abi": [
    {
      "inputs": [],
      "name": "currentBalance",
      "outputs": [
        {
          "internalType": "uint256",
          "name": "",
          "type": "uint256"
        }
      ],
      "stateMutability": "view",
      "type": "function"
    },
    {
      "inputs": [
        {
          "internalType": "address",
          "name": "_addr",
          "type": "address"
        },
        {
          "internalType": "uint256",
          "name": "_index",
          "type": "uint256"
        }
      ],
      "name": "getPayment",
      "outputs": [
        {
          "components": [
            {
              "internalType": "uint256",
              "name": "amount",
              "type": "uint256"
            },
            {
              "internalType": "uint256",
              "name": "timestamp",
              "type": "uint256"
            },
            {
              "internalType": "address",
              "name": "from",
              "type": "address"
            },
            {
              "internalType": "string",
              "name": "message",
              "type": "string"
            }
          ],
          "internalType": "struct Payments.Payment",
          "name": "",
          "type": "tuple"
        }
      ],
      "stateMutability": "view",
      "type": "function"
    },
    {
      "inputs": [
        {
          "internalType": "string",
          "name": "message",
          "type": "string"
        }
      ],
      "name": "pay",
      "outputs": [],
      "stateMutability": "payable",
      "type": "function"
    }
  ],
  "bytecode": "0x608060405234801561001057600080fd5b50610b5e806100206000396000f3fe6080604052600436106100345760003560e01c80632b66d72e14610039578063977a767c14610055578063ce845d1d14610092575b600080fd5b610053600480360381019061004e919061056a565b6100bd565b005b34801561006157600080fd5b5061007c60048036038101906100779190610647565b610261565b6040516100899190610787565b60405180910390f35b34801561009e57600080fd5b506100a76103ca565b6040516100b491906107b8565b60405180910390f35b60008060003373ffffffffffffffffffffffffffffffffffffffff1673ffffffffffffffffffffffffffffffffffffffff1681526020019081526020016000206000015490506000803373ffffffffffffffffffffffffffffffffffffffff1673ffffffffffffffffffffffffffffffffffffffff168152602001908152602001600020600001600081548092919061015590610802565b9190505550600060405180608001604052803481526020014281526020013373ffffffffffffffffffffffffffffffffffffffff168152602001848152509050806000803373ffffffffffffffffffffffffffffffffffffffff1673ffffffffffffffffffffffffffffffffffffffff1681526020019081526020016000206001016000848152602001908152602001600020600082015181600001556020820151816001015560408201518160020160006101000a81548173ffffffffffffffffffffffffffffffffffffffff021916908373ffffffffffffffffffffffffffffffffffffffff16021790555060608201518160030190816102589190610a56565b50905050505050565b6102696103d2565b6000808473ffffffffffffffffffffffffffffffffffffffff1673ffffffffffffffffffffffffffffffffffffffff168152602001908152602001600020600101600083815260200190815260200160002060405180608001604052908160008201548152602001600182015481526020016002820160009054906101000a900473ffffffffffffffffffffffffffffffffffffffff1673ffffffffffffffffffffffffffffffffffffffff1673ffffffffffffffffffffffffffffffffffffffff16815260200160038201805461034090610879565b80601f016020809104026020016040519081016040528092919081815260200182805461036c90610879565b80156103b95780601f1061038e576101008083540402835291602001916103b9565b820191906000526020600020905b81548152906001019060200180831161039c57829003601f168201915b505050505081525050905092915050565b600047905090565b60405180608001604052806000815260200160008152602001600073ffffffffffffffffffffffffffffffffffffffff168152602001606081525090565b6000604051905090565b600080fd5b600080fd5b600080fd5b600080fd5b6000601f19601f8301169050919050565b7f4e487b7100000000000000000000000000000000000000000000000000000000600052604160045260246000fd5b6104778261042e565b810181811067ffffffffffffffff821117156104965761049561043f565b5b80604052505050565b60006104a9610410565b90506104b5828261046e565b919050565b600067ffffffffffffffff8211156104d5576104d461043f565b5b6104de8261042e565b9050602081019050919050565b82818337600083830152505050565b600061050d610508846104ba565b61049f565b90508281526020810184848401111561052957610528610429565b5b6105348482856104eb565b509392505050565b600082601f83011261055157610550610424565b5b81356105618482602086016104fa565b91505092915050565b6000602082840312156105805761057f61041a565b5b600082013567ffffffffffffffff81111561059e5761059d61041f565b5b6105aa8482850161053c565b91505092915050565b600073ffffffffffffffffffffffffffffffffffffffff82169050919050565b60006105de826105b3565b9050919050565b6105ee816105d3565b81146105f957600080fd5b50565b60008135905061060b816105e5565b92915050565b6000819050919050565b61062481610611565b811461062f57600080fd5b50565b6000813590506106418161061b565b92915050565b6000806040838503121561065e5761065d61041a565b5b600061066c858286016105fc565b925050602061067d85828601610632565b9150509250929050565b61069081610611565b82525050565b61069f816105d3565b82525050565b600081519050919050565b600082825260208201905092915050565b60005b838110156106df5780820151818401526020810190506106c4565b60008484015250505050565b60006106f6826106a5565b61070081856106b0565b93506107108185602086016106c1565b6107198161042e565b840191505092915050565b600060808301600083015161073c6000860182610687565b50602083015161074f6020860182610687565b5060408301516107626040860182610696565b506060830151848203606086015261077a82826106eb565b9150508091505092915050565b600060208201905081810360008301526107a18184610724565b905092915050565b6107b281610611565b82525050565b60006020820190506107cd60008301846107a9565b92915050565b7f4e487b7100000000000000000000000000000000000000000000000000000000600052601160045260246000fd5b600061080d82610611565b91507fffffffffffffffffffffffffffffffffffffffffffffffffffffffffffffffff820361083f5761083e6107d3565b5b600182019050919050565b7f4e487b7100000000000000000000000000000000000000000000000000000000600052602260045260246000fd5b6000600282049050600182168061089157607f821691505b6020821081036108a4576108a361084a565b5b50919050565b60008190508160005260206000209050919050565b60006020601f8301049050919050565b600082821b905092915050565b60006008830261090c7fffffffffffffffffffffffffffffffffffffffffffffffffffffffffffffffff826108cf565b61091686836108cf565b95508019841693508086168417925050509392505050565b6000819050919050565b600061095361094e61094984610611565b61092e565b610611565b9050919050565b6000819050919050565b61096d83610938565b6109816109798261095a565b8484546108dc565b825550505050565b600090565b610996610989565b6109a1818484610964565b505050565b5b818110156109c5576109ba60008261098e565b6001810190506109a7565b5050565b601f821115610a0a576109db816108aa565b6109e4846108bf565b810160208510156109f3578190505b610a076109ff856108bf565b8301826109a6565b50505b505050565b600082821c905092915050565b6000610a2d60001984600802610a0f565b1980831691505092915050565b6000610a468383610a1c565b9150826002028217905092915050565b610a5f826106a5565b67ffffffffffffffff811115610a7857610a7761043f565b5b610a828254610879565b610a8d8282856109c9565b600060209050601f831160018114610ac05760008415610aae578287015190505b610ab88582610a3a565b865550610b20565b601f198416610ace866108aa565b60005b82811015610af657848901518255600182019150602085019450602081019050610ad1565b86831015610b135784890151610b0f601f891682610a1c565b8355505b6001600288020188555050505b50505050505056fea26469706673582212202f45e65ca270efa08adb7ec3c37af37db7bc3d21e71bfefb94f9a9cf3725184d64736f6c63430008130033",
  "linkReferences": {},
  "deployedLinkReferences": {}
}