{
  "_format": "hh-sol-artifact-1",
  "contractName": "AuctionEngine",
  "sourceName": "contracts/AuctionEngine.sol",
  "abi": [
    {
      "inputs": [],
      "stateMutability": "nonpayable",
      "type": "constructor"
    },
    {
      "anonymous": false,
      "inputs": [
        {
          "indexed": false,
          "internalType": "uint256",
          "name": "index",
          "type": "uint256"
        },
        {
          "indexed": false,
          "internalType": "string",
          "name": "itemName",
          "type": "string"
        },
        {
          "indexed": false,
          "internalType": "uint256",
          "name": "startingPrice",
          "type": "uint256"
        },
        {
          "indexed": false,
          "internalType": "uint256",
          "name": "duration",
          "type": "uint256"
        }
      ],
      "name": "AuctionCreated",
      "type": "event"
    },
    {
      "anonymous": false,
      "inputs": [
        {
          "indexed": false,
          "internalType": "uint256",
          "name": "index",
          "type": "uint256"
        },
        {
          "indexed": false,
          "internalType": "uint256",
          "name": "finalPrice",
          "type": "uint256"
        },
        {
          "indexed": false,
          "internalType": "address",
          "name": "buyer",
          "type": "address"
        }
      ],
      "name": "AuctionEnded",
      "type": "event"
    },
    {
      "inputs": [
        {
          "internalType": "uint256",
          "name": "",
          "type": "uint256"
        }
      ],
      "name": "auctions",
      "outputs": [
        {
          "internalType": "address payable",
          "name": "seller",
          "type": "address"
        },
        {
          "internalType": "uint256",
          "name": "startingPrice",
          "type": "uint256"
        },
        {
          "internalType": "uint256",
          "name": "finalPrice",
          "type": "uint256"
        },
        {
          "internalType": "uint256",
          "name": "startAt",
          "type": "uint256"
        },
        {
          "internalType": "uint256",
          "name": "endsAt",
          "type": "uint256"
        },
        {
          "internalType": "uint256",
          "name": "discountRate",
          "type": "uint256"
        },
        {
          "internalType": "string",
          "name": "item",
          "type": "string"
        },
        {
          "internalType": "bool",
          "name": "stopped",
          "type": "bool"
        }
      ],
      "stateMutability": "view",
      "type": "function"
    },
    {
      "inputs": [
        {
          "internalType": "uint256",
          "name": "_index",
          "type": "uint256"
        }
      ],
      "name": "buy",
      "outputs": [],
      "stateMutability": "payable",
      "type": "function"
    },
    {
      "inputs": [
        {
          "internalType": "string",
          "name": "_item",
          "type": "string"
        },
        {
          "internalType": "uint256",
          "name": "_startingPrice",
          "type": "uint256"
        },
        {
          "internalType": "uint256",
          "name": "_discountRate",
          "type": "uint256"
        },
        {
          "internalType": "uint256",
          "name": "_duration",
          "type": "uint256"
        }
      ],
      "name": "createAuction",
      "outputs": [],
      "stateMutability": "nonpayable",
      "type": "function"
    },
    {
      "inputs": [
        {
          "internalType": "uint256",
          "name": "_index",
          "type": "uint256"
        }
      ],
      "name": "getCurrentPrice",
      "outputs": [
        {
          "internalType": "uint256",
          "name": "",
          "type": "uint256"
        }
      ],
      "stateMutability": "view",
      "type": "function"
    },
    {
      "inputs": [],
      "name": "owner",
      "outputs": [
        {
          "internalType": "address",
          "name": "",
          "type": "address"
        }
      ],
      "stateMutability": "view",
      "type": "function"
    }
  ],
  "bytecode": "0x608060405234801561001057600080fd5b50336000806101000a81548173ffffffffffffffffffffffffffffffffffffffff021916908373ffffffffffffffffffffffffffffffffffffffff160217905550611491806100606000396000f3fe60806040526004361061004a5760003560e01c80634e4637341461004f578063571a26a0146100785780638da5cb5b146100bc578063c55d0f56146100e7578063d96a094a14610124575b600080fd5b34801561005b57600080fd5b5061007660048036038101906100719190610a7d565b610140565b005b34801561008457600080fd5b5061009f600480360381019061009a9190610b05565b61037f565b6040516100b3989796959493929190610c2d565b60405180910390f35b3480156100c857600080fd5b506100d161048c565b6040516100de9190610cd3565b60405180910390f35b3480156100f357600080fd5b5061010e60048036038101906101099190610b05565b6104b0565b60405161011b9190610cee565b60405180910390f35b61013e60048036038101906101399190610b05565b61072d565b005b600080821461014f5781610154565b6202a3005b905082816101629190610d38565b8410156101a4576040517f08c379a000000000000000000000000000000000000000000000000000000000815260040161019b90610dc6565b60405180910390fd5b60006040518061010001604052803373ffffffffffffffffffffffffffffffffffffffff16815260200186815260200186815260200142815260200183426101ec9190610de6565b815260200185815260200188888080601f016020809104026020016040519081016040528093929190818152602001838380828437600081840152601f19601f820116905080830192505050505050508152602001600015158152509050600181908060018154018082558091505060019003906000526020600020906008020160009091909190915060008201518160000160006101000a81548173ffffffffffffffffffffffffffffffffffffffff021916908373ffffffffffffffffffffffffffffffffffffffff1602179055506020820151816001015560408201518160020155606082015181600301556080820151816004015560a0820151816005015560c08201518160060190816103049190611055565b5060e08201518160070160006101000a81548160ff02191690831515021790555050507f5bf34ed94988e5dcdc7d1faaa54eb1d3b55f45d5f11457e235afb21a8ebbe73c600180805490506103599190611127565b8888888660405161036e959493929190611197565b60405180910390a150505050505050565b6001818154811061038f57600080fd5b90600052602060002090600802016000915090508060000160009054906101000a900473ffffffffffffffffffffffffffffffffffffffff16908060010154908060020154908060030154908060040154908060050154908060060180546103f690610e78565b80601f016020809104026020016040519081016040528092919081815260200182805461042290610e78565b801561046f5780601f106104445761010080835404028352916020019161046f565b820191906000526020600020905b81548152906001019060200180831161045257829003601f168201915b5050505050908060070160009054906101000a900460ff16905088565b60008054906101000a900473ffffffffffffffffffffffffffffffffffffffff1681565b600060018054905082106104f9576040517f08c379a00000000000000000000000000000000000000000000000000000000081526004016104f090611231565b60405180910390fd5b60006001838154811061050f5761050e611251565b5b9060005260206000209060080201604051806101000160405290816000820160009054906101000a900473ffffffffffffffffffffffffffffffffffffffff1673ffffffffffffffffffffffffffffffffffffffff1673ffffffffffffffffffffffffffffffffffffffff16815260200160018201548152602001600282015481526020016003820154815260200160048201548152602001600582015481526020016006820180546105c190610e78565b80601f01602080910402602001604051908101604052809291908181526020018280546105ed90610e78565b801561063a5780601f1061060f5761010080835404028352916020019161063a565b820191906000526020600020905b81548152906001019060200180831161061d57829003601f168201915b505050505081526020016007820160009054906101000a900460ff16151515158152505090508060e00151156106a5576040517f08c379a000000000000000000000000000000000000000000000000000000000815260040161069c906112cc565b60405180910390fd5b806080015142106106eb576040517f08c379a00000000000000000000000000000000000000000000000000000000081526004016106e290611338565b60405180910390fd5b60008160600151426106fd9190611127565b905060008260a00151826107119190610d38565b90508083602001516107239190611127565b9350505050919050565b6001805490508110610774576040517f08c379a000000000000000000000000000000000000000000000000000000000815260040161076b90611231565b60405180910390fd5b60006001828154811061078a57610789611251565b5b906000526020600020906008020190508060070160009054906101000a900460ff16156107ec576040517f08c379a00000000000000000000000000000000000000000000000000000000081526004016107e3906112cc565b60405180910390fd5b80600401544210610832576040517f08c379a000000000000000000000000000000000000000000000000000000000815260040161082990611338565b60405180910390fd5b600061083d836104b0565b905080341015610882576040517f08c379a0000000000000000000000000000000000000000000000000000000008152600401610879906113a4565b60405180910390fd5b60018260070160006101000a81548160ff021916908315150217905550808260020181905550600081346108b69190611127565b90506000811115610909573373ffffffffffffffffffffffffffffffffffffffff166108fc829081150290604051600060405180830381858888f19350505050158015610907573d6000803e3d6000fd5b505b8260000160009054906101000a900473ffffffffffffffffffffffffffffffffffffffff1673ffffffffffffffffffffffffffffffffffffffff166108fc6064600a856109569190610d38565b61096091906113f3565b8461096b9190611127565b9081150290604051600060405180830381858888f19350505050158015610996573d6000803e3d6000fd5b507fbafc4bda865d4d1f8d5b16f883e996fde0fe71112fac81503876d353756944008483336040516109ca93929190611424565b60405180910390a150505050565b600080fd5b600080fd5b600080fd5b600080fd5b600080fd5b60008083601f840112610a0757610a066109e2565b5b8235905067ffffffffffffffff811115610a2457610a236109e7565b5b602083019150836001820283011115610a4057610a3f6109ec565b5b9250929050565b6000819050919050565b610a5a81610a47565b8114610a6557600080fd5b50565b600081359050610a7781610a51565b92915050565b600080600080600060808688031215610a9957610a986109d8565b5b600086013567ffffffffffffffff811115610ab757610ab66109dd565b5b610ac3888289016109f1565b95509550506020610ad688828901610a68565b9350506040610ae788828901610a68565b9250506060610af888828901610a68565b9150509295509295909350565b600060208284031215610b1b57610b1a6109d8565b5b6000610b2984828501610a68565b91505092915050565b600073ffffffffffffffffffffffffffffffffffffffff82169050919050565b6000610b5d82610b32565b9050919050565b610b6d81610b52565b82525050565b610b7c81610a47565b82525050565b600081519050919050565b600082825260208201905092915050565b60005b83811015610bbc578082015181840152602081019050610ba1565b60008484015250505050565b6000601f19601f8301169050919050565b6000610be482610b82565b610bee8185610b8d565b9350610bfe818560208601610b9e565b610c0781610bc8565b840191505092915050565b60008115159050919050565b610c2781610c12565b82525050565b600061010082019050610c43600083018b610b64565b610c50602083018a610b73565b610c5d6040830189610b73565b610c6a6060830188610b73565b610c776080830187610b73565b610c8460a0830186610b73565b81810360c0830152610c968185610bd9565b9050610ca560e0830184610c1e565b9998505050505050505050565b6000610cbd82610b32565b9050919050565b610ccd81610cb2565b82525050565b6000602082019050610ce86000830184610cc4565b92915050565b6000602082019050610d036000830184610b73565b92915050565b7f4e487b7100000000000000000000000000000000000000000000000000000000600052601160045260246000fd5b6000610d4382610a47565b9150610d4e83610a47565b9250828202610d5c81610a47565b91508282048414831517610d7357610d72610d09565b5b5092915050565b7f696e636f7272656374207374617274696e672070726963650000000000000000600082015250565b6000610db0601883610b8d565b9150610dbb82610d7a565b602082019050919050565b60006020820190508181036000830152610ddf81610da3565b9050919050565b6000610df182610a47565b9150610dfc83610a47565b9250828201905080821115610e1457610e13610d09565b5b92915050565b7f4e487b7100000000000000000000000000000000000000000000000000000000600052604160045260246000fd5b7f4e487b7100000000000000000000000000000000000000000000000000000000600052602260045260246000fd5b60006002820490506001821680610e9057607f821691505b602082108103610ea357610ea2610e49565b5b50919050565b60008190508160005260206000209050919050565b60006020601f8301049050919050565b600082821b905092915050565b600060088302610f0b7fffffffffffffffffffffffffffffffffffffffffffffffffffffffffffffffff82610ece565b610f158683610ece565b95508019841693508086168417925050509392505050565b6000819050919050565b6000610f52610f4d610f4884610a47565b610f2d565b610a47565b9050919050565b6000819050919050565b610f6c83610f37565b610f80610f7882610f59565b848454610edb565b825550505050565b600090565b610f95610f88565b610fa0818484610f63565b505050565b5b81811015610fc457610fb9600082610f8d565b600181019050610fa6565b5050565b601f82111561100957610fda81610ea9565b610fe384610ebe565b81016020851015610ff2578190505b611006610ffe85610ebe565b830182610fa5565b50505b505050565b600082821c905092915050565b600061102c6000198460080261100e565b1980831691505092915050565b6000611045838361101b565b9150826002028217905092915050565b61105e82610b82565b67ffffffffffffffff81111561107757611076610e1a565b5b6110818254610e78565b61108c828285610fc8565b600060209050601f8311600181146110bf57600084156110ad578287015190505b6110b78582611039565b86555061111f565b601f1984166110cd86610ea9565b60005b828110156110f5578489015182556001820191506020850194506020810190506110d0565b86831015611112578489015161110e601f89168261101b565b8355505b6001600288020188555050505b505050505050565b600061113282610a47565b915061113d83610a47565b925082820390508181111561115557611154610d09565b5b92915050565b82818337600083830152505050565b60006111768385610b8d565b935061118383858461115b565b61118c83610bc8565b840190509392505050565b60006080820190506111ac6000830188610b73565b81810360208301526111bf81868861116a565b90506111ce6040830185610b73565b6111db6060830184610b73565b9695505050505050565b7f62616420696e6465780000000000000000000000000000000000000000000000600082015250565b600061121b600983610b8d565b9150611226826111e5565b602082019050919050565b6000602082019050818103600083015261124a8161120e565b9050919050565b7f4e487b7100000000000000000000000000000000000000000000000000000000600052603260045260246000fd5b7f73746f7070656421000000000000000000000000000000000000000000000000600082015250565b60006112b6600883610b8d565b91506112c182611280565b602082019050919050565b600060208201905081810360008301526112e5816112a9565b9050919050565b7f656e646564210000000000000000000000000000000000000000000000000000600082015250565b6000611322600683610b8d565b915061132d826112ec565b602082019050919050565b6000602082019050818103600083015261135181611315565b9050919050565b7f6e6f7420656e6f7567682066756e647321000000000000000000000000000000600082015250565b600061138e601183610b8d565b915061139982611358565b602082019050919050565b600060208201905081810360008301526113bd81611381565b9050919050565b7f4e487b7100000000000000000000000000000000000000000000000000000000600052601260045260246000fd5b60006113fe82610a47565b915061140983610a47565b925082611419576114186113c4565b5b828204905092915050565b60006060820190506114396000830186610b73565b6114466020830185610b73565b6114536040830184610cc4565b94935050505056fea2646970667358221220c34dbeaa99b9712e42f7c49f6a8df6d0d16f0eac70956ac4d094f5d375a5412364736f6c63430008130033",
  "linkReferences": {},
  "deployedLinkReferences": {}
}