{"contracts/Payments.sol":{"Payments":{"abi":[{"inputs":[],"name":"currentBalance","outputs":[{"internalType":"uint256","name":"","type":"uint256"}],"stateMutability":"view","type":"function"},{"inputs":[{"internalType":"address","name":"_addr","type":"address"},{"internalType":"uint256","name":"_index","type":"uint256"}],"name":"getPayment","outputs":[{"components":[{"internalType":"uint256","name":"amount","type":"uint256"},{"internalType":"uint256","name":"timestamp","type":"uint256"},{"internalType":"address","name":"from","type":"address"},{"internalType":"string","name":"message","type":"string"}],"internalType":"struct Payments.Payment","name":"","type":"tuple"}],"stateMutability":"view","type":"function"},{"inputs":[{"internalType":"string","name":"message","type":"string"}],"name":"pay","outputs":[],"stateMutability":"payable","type":"function"}],"evm":{"bytecode":{"linkReferences":{},"object":"608060405234801561001057600080fd5b50610b5e806100206000396000f3fe6080604052600436106100345760003560e01c80632b66d72e14610039578063977a767c14610055578063ce845d1d14610092575b600080fd5b610053600480360381019061004e919061056a565b6100bd565b005b34801561006157600080fd5b5061007c60048036038101906100779190610647565b610261565b6040516100899190610787565b60405180910390f35b34801561009e57600080fd5b506100a76103ca565b6040516100b491906107b8565b60405180910390f35b60008060003373ffffffffffffffffffffffffffffffffffffffff1673ffffffffffffffffffffffffffffffffffffffff1681526020019081526020016000206000015490506000803373ffffffffffffffffffffffffffffffffffffffff1673ffffffffffffffffffffffffffffffffffffffff168152602001908152602001600020600001600081548092919061015590610802565b9190505550600060405180608001604052803481526020014281526020013373ffffffffffffffffffffffffffffffffffffffff168152602001848152509050806000803373ffffffffffffffffffffffffffffffffffffffff1673ffffffffffffffffffffffffffffffffffffffff1681526020019081526020016000206001016000848152602001908152602001600020600082015181600001556020820151816001015560408201518160020160006101000a81548173ffffffffffffffffffffffffffffffffffffffff021916908373ffffffffffffffffffffffffffffffffffffffff16021790555060608201518160030190816102589190610a56565b50905050505050565b6102696103d2565b6000808473ffffffffffffffffffffffffffffffffffffffff1673ffffffffffffffffffffffffffffffffffffffff168152602001908152602001600020600101600083815260200190815260200160002060405180608001604052908160008201548152602001600182015481526020016002820160009054906101000a900473ffffffffffffffffffffffffffffffffffffffff1673ffffffffffffffffffffffffffffffffffffffff1673ffffffffffffffffffffffffffffffffffffffff16815260200160038201805461034090610879565b80601f016020809104026020016040519081016040528092919081815260200182805461036c90610879565b80156103b95780601f1061038e576101008083540402835291602001916103b9565b820191906000526020600020905b81548152906001019060200180831161039c57829003601f168201915b505050505081525050905092915050565b600047905090565b60405180608001604052806000815260200160008152602001600073ffffffffffffffffffffffffffffffffffffffff168152602001606081525090565b6000604051905090565b600080fd5b600080fd5b600080fd5b600080fd5b6000601f19601f8301169050919050565b7f4e487b7100000000000000000000000000000000000000000000000000000000600052604160045260246000fd5b6104778261042e565b810181811067ffffffffffffffff821117156104965761049561043f565b5b80604052505050565b60006104a9610410565b90506104b5828261046e565b919050565b600067ffffffffffffffff8211156104d5576104d461043f565b5b6104de8261042e565b9050602081019050919050565b82818337600083830152505050565b600061050d610508846104ba565b61049f565b90508281526020810184848401111561052957610528610429565b5b6105348482856104eb565b509392505050565b600082601f83011261055157610550610424565b5b81356105618482602086016104fa565b91505092915050565b6000602082840312156105805761057f61041a565b5b600082013567ffffffffffffffff81111561059e5761059d61041f565b5b6105aa8482850161053c565b91505092915050565b600073ffffffffffffffffffffffffffffffffffffffff82169050919050565b60006105de826105b3565b9050919050565b6105ee816105d3565b81146105f957600080fd5b50565b60008135905061060b816105e5565b92915050565b6000819050919050565b61062481610611565b811461062f57600080fd5b50565b6000813590506106418161061b565b92915050565b6000806040838503121561065e5761065d61041a565b5b600061066c858286016105fc565b925050602061067d85828601610632565b9150509250929050565b61069081610611565b82525050565b61069f816105d3565b82525050565b600081519050919050565b600082825260208201905092915050565b60005b838110156106df5780820151818401526020810190506106c4565b60008484015250505050565b60006106f6826106a5565b61070081856106b0565b93506107108185602086016106c1565b6107198161042e565b840191505092915050565b600060808301600083015161073c6000860182610687565b50602083015161074f6020860182610687565b5060408301516107626040860182610696565b506060830151848203606086015261077a82826106eb565b9150508091505092915050565b600060208201905081810360008301526107a18184610724565b905092915050565b6107b281610611565b82525050565b60006020820190506107cd60008301846107a9565b92915050565b7f4e487b7100000000000000000000000000000000000000000000000000000000600052601160045260246000fd5b600061080d82610611565b91507fffffffffffffffffffffffffffffffffffffffffffffffffffffffffffffffff820361083f5761083e6107d3565b5b600182019050919050565b7f4e487b7100000000000000000000000000000000000000000000000000000000600052602260045260246000fd5b6000600282049050600182168061089157607f821691505b6020821081036108a4576108a361084a565b5b50919050565b60008190508160005260206000209050919050565b60006020601f8301049050919050565b600082821b905092915050565b60006008830261090c7fffffffffffffffffffffffffffffffffffffffffffffffffffffffffffffffff826108cf565b61091686836108cf565b95508019841693508086168417925050509392505050565b6000819050919050565b600061095361094e61094984610611565b61092e565b610611565b9050919050565b6000819050919050565b61096d83610938565b6109816109798261095a565b8484546108dc565b825550505050565b600090565b610996610989565b6109a1818484610964565b505050565b5b818110156109c5576109ba60008261098e565b6001810190506109a7565b5050565b601f821115610a0a576109db816108aa565b6109e4846108bf565b810160208510156109f3578190505b610a076109ff856108bf565b8301826109a6565b50505b505050565b600082821c905092915050565b6000610a2d60001984600802610a0f565b1980831691505092915050565b6000610a468383610a1c565b9150826002028217905092915050565b610a5f826106a5565b67ffffffffffffffff811115610a7857610a7761043f565b5b610a828254610879565b610a8d8282856109c9565b600060209050601f831160018114610ac05760008415610aae578287015190505b610ab88582610a3a565b865550610b20565b601f198416610ace866108aa565b60005b82811015610af657848901518255600182019150602085019450602081019050610ad1565b86831015610b135784890151610b0f601f891682610a1c565b8355505b6001600288020188555050505b50505050505056fea26469706673582212202f45e65ca270efa08adb7ec3c37af37db7bc3d21e71bfefb94f9a9cf3725184d64736f6c63430008130033","opcodes":"PUSH1 0x80 PUSH1 0x40 MSTORE CALLVALUE DUP1 ISZERO PUSH2 0x10 JUMPI PUSH1 0x0 DUP1 REVERT JUMPDEST POP PUSH2 0xB5E DUP1 PUSH2 0x20 PUSH1 0x0 CODECOPY PUSH1 0x0 RETURN INVALID PUSH1 0x80 PUSH1 0x40 MSTORE PUSH1 0x4 CALLDATASIZE LT PUSH2 0x34 JUMPI PUSH1 0x0 CALLDATALOAD PUSH1 0xE0 SHR DUP1 PUSH4 0x2B66D72E EQ PUSH2 0x39 JUMPI DUP1 PUSH4 0x977A767C EQ PUSH2 0x55 JUMPI DUP1 PUSH4 0xCE845D1D EQ PUSH2 0x92 JUMPI JUMPDEST PUSH1 0x0 DUP1 REVERT JUMPDEST PUSH2 0x53 PUSH1 0x4 DUP1 CALLDATASIZE SUB DUP2 ADD SWAP1 PUSH2 0x4E SWAP2 SWAP1 PUSH2 0x56A JUMP JUMPDEST PUSH2 0xBD JUMP JUMPDEST STOP JUMPDEST CALLVALUE DUP1 ISZERO PUSH2 0x61 JUMPI PUSH1 0x0 DUP1 REVERT JUMPDEST POP PUSH2 0x7C PUSH1 0x4 DUP1 CALLDATASIZE SUB DUP2 ADD SWAP1 PUSH2 0x77 SWAP2 SWAP1 PUSH2 0x647 JUMP JUMPDEST PUSH2 0x261 JUMP JUMPDEST PUSH1 0x40 MLOAD PUSH2 0x89 SWAP2 SWAP1 PUSH2 0x787 JUMP JUMPDEST PUSH1 0x40 MLOAD DUP1 SWAP2 SUB SWAP1 RETURN JUMPDEST CALLVALUE DUP1 ISZERO PUSH2 0x9E JUMPI PUSH1 0x0 DUP1 REVERT JUMPDEST POP PUSH2 0xA7 PUSH2 0x3CA JUMP JUMPDEST PUSH1 0x40 MLOAD PUSH2 0xB4 SWAP2 SWAP1 PUSH2 0x7B8 JUMP JUMPDEST PUSH1 0x40 MLOAD DUP1 SWAP2 SUB SWAP1 RETURN JUMPDEST PUSH1 0x0 DUP1 PUSH1 0x0 CALLER PUSH20 0xFFFFFFFFFFFFFFFFFFFFFFFFFFFFFFFFFFFFFFFF AND PUSH20 0xFFFFFFFFFFFFFFFFFFFFFFFFFFFFFFFFFFFFFFFF AND DUP2 MSTORE PUSH1 0x20 ADD SWAP1 DUP2 MSTORE PUSH1 0x20 ADD PUSH1 0x0 KECCAK256 PUSH1 0x0 ADD SLOAD SWAP1 POP PUSH1 0x0 DUP1 CALLER PUSH20 0xFFFFFFFFFFFFFFFFFFFFFFFFFFFFFFFFFFFFFFFF AND PUSH20 0xFFFFFFFFFFFFFFFFFFFFFFFFFFFFFFFFFFFFFFFF AND DUP2 MSTORE PUSH1 0x20 ADD SWAP1 DUP2 MSTORE PUSH1 0x20 ADD PUSH1 0x0 KECCAK256 PUSH1 0x0 ADD PUSH1 0x0 DUP2 SLOAD DUP1 SWAP3 SWAP2 SWAP1 PUSH2 0x155 SWAP1 PUSH2 0x802 JUMP JUMPDEST SWAP2 SWAP1 POP SSTORE POP PUSH1 0x0 PUSH1 0x40 MLOAD DUP1 PUSH1 0x80 ADD PUSH1 0x40 MSTORE DUP1 CALLVALUE DUP2 MSTORE PUSH1 0x20 ADD TIMESTAMP DUP2 MSTORE PUSH1 0x20 ADD CALLER PUSH20 0xFFFFFFFFFFFFFFFFFFFFFFFFFFFFFFFFFFFFFFFF AND DUP2 MSTORE PUSH1 0x20 ADD DUP5 DUP2 MSTORE POP SWAP1 POP DUP1 PUSH1 0x0 DUP1 CALLER PUSH20 0xFFFFFFFFFFFFFFFFFFFFFFFFFFFFFFFFFFFFFFFF AND PUSH20 0xFFFFFFFFFFFFFFFFFFFFFFFFFFFFFFFFFFFFFFFF AND DUP2 MSTORE PUSH1 0x20 ADD SWAP1 DUP2 MSTORE PUSH1 0x20 ADD PUSH1 0x0 KECCAK256 PUSH1 0x1 ADD PUSH1 0x0 DUP5 DUP2 MSTORE PUSH1 0x20 ADD SWAP1 DUP2 MSTORE PUSH1 0x20 ADD PUSH1 0x0 KECCAK256 PUSH1 0x0 DUP3 ADD MLOAD DUP2 PUSH1 0x0 ADD SSTORE PUSH1 0x20 DUP3 ADD MLOAD DUP2 PUSH1 0x1 ADD SSTORE PUSH1 0x40 DUP3 ADD MLOAD DUP2 PUSH1 0x2 ADD PUSH1 0x0 PUSH2 0x100 EXP DUP2 SLOAD DUP2 PUSH20 0xFFFFFFFFFFFFFFFFFFFFFFFFFFFFFFFFFFFFFFFF MUL NOT AND SWAP1 DUP4 PUSH20 0xFFFFFFFFFFFFFFFFFFFFFFFFFFFFFFFFFFFFFFFF AND MUL OR SWAP1 SSTORE POP PUSH1 0x60 DUP3 ADD MLOAD DUP2 PUSH1 0x3 ADD SWAP1 DUP2 PUSH2 0x258 SWAP2 SWAP1 PUSH2 0xA56 JUMP JUMPDEST POP SWAP1 POP POP POP POP POP JUMP JUMPDEST PUSH2 0x269 PUSH2 0x3D2 JUMP JUMPDEST PUSH1 0x0 DUP1 DUP5 PUSH20 0xFFFFFFFFFFFFFFFFFFFFFFFFFFFFFFFFFFFFFFFF AND PUSH20 0xFFFFFFFFFFFFFFFFFFFFFFFFFFFFFFFFFFFFFFFF AND DUP2 MSTORE PUSH1 0x20 ADD SWAP1 DUP2 MSTORE PUSH1 0x20 ADD PUSH1 0x0 KECCAK256 PUSH1 0x1 ADD PUSH1 0x0 DUP4 DUP2 MSTORE PUSH1 0x20 ADD SWAP1 DUP2 MSTORE PUSH1 0x20 ADD PUSH1 0x0 KECCAK256 PUSH1 0x40 MLOAD DUP1 PUSH1 0x80 ADD PUSH1 0x40 MSTORE SWAP1 DUP2 PUSH1 0x0 DUP3 ADD SLOAD DUP2 MSTORE PUSH1 0x20 ADD PUSH1 0x1 DUP3 ADD SLOAD DUP2 MSTORE PUSH1 0x20 ADD PUSH1 0x2 DUP3 ADD PUSH1 0x0 SWAP1 SLOAD SWAP1 PUSH2 0x100 EXP SWAP1 DIV PUSH20 0xFFFFFFFFFFFFFFFFFFFFFFFFFFFFFFFFFFFFFFFF AND PUSH20 0xFFFFFFFFFFFFFFFFFFFFFFFFFFFFFFFFFFFFFFFF AND PUSH20 0xFFFFFFFFFFFFFFFFFFFFFFFFFFFFFFFFFFFFFFFF AND DUP2 MSTORE PUSH1 0x20 ADD PUSH1 0x3 DUP3 ADD DUP1 SLOAD PUSH2 0x340 SWAP1 PUSH2 0x879 JUMP JUMPDEST DUP1 PUSH1 0x1F ADD PUSH1 0x20 DUP1 SWAP2 DIV MUL PUSH1 0x20 ADD PUSH1 0x40 MLOAD SWAP1 DUP2 ADD PUSH1 0x40 MSTORE DUP1 SWAP3 SWAP2 SWAP1 DUP2 DUP2 MSTORE PUSH1 0x20 ADD DUP3 DUP1 SLOAD PUSH2 0x36C SWAP1 PUSH2 0x879 JUMP JUMPDEST DUP1 ISZERO PUSH2 0x3B9 JUMPI DUP1 PUSH1 0x1F LT PUSH2 0x38E JUMPI PUSH2 0x100 DUP1 DUP4 SLOAD DIV MUL DUP4 MSTORE SWAP2 PUSH1 0x20 ADD SWAP2 PUSH2 0x3B9 JUMP JUMPDEST DUP3 ADD SWAP2 SWAP1 PUSH1 0x0 MSTORE PUSH1 0x20 PUSH1 0x0 KECCAK256 SWAP1 JUMPDEST DUP2 SLOAD DUP2 MSTORE SWAP1 PUSH1 0x1 ADD SWAP1 PUSH1 0x20 ADD DUP1 DUP4 GT PUSH2 0x39C JUMPI DUP3 SWAP1 SUB PUSH1 0x1F AND DUP3 ADD SWAP2 JUMPDEST POP POP POP POP POP DUP2 MSTORE POP POP SWAP1 POP SWAP3 SWAP2 POP POP JUMP JUMPDEST PUSH1 0x0 SELFBALANCE SWAP1 POP SWAP1 JUMP JUMPDEST PUSH1 0x40 MLOAD DUP1 PUSH1 0x80 ADD PUSH1 0x40 MSTORE DUP1 PUSH1 0x0 DUP2 MSTORE PUSH1 0x20 ADD PUSH1 0x0 DUP2 MSTORE PUSH1 0x20 ADD PUSH1 0x0 PUSH20 0xFFFFFFFFFFFFFFFFFFFFFFFFFFFFFFFFFFFFFFFF AND DUP2 MSTORE PUSH1 0x20 ADD PUSH1 0x60 DUP2 MSTORE POP SWAP1 JUMP JUMPDEST PUSH1 0x0 PUSH1 0x40 MLOAD SWAP1 POP SWAP1 JUMP JUMPDEST PUSH1 0x0 DUP1 REVERT JUMPDEST PUSH1 0x0 DUP1 REVERT JUMPDEST PUSH1 0x0 DUP1 REVERT JUMPDEST PUSH1 0x0 DUP1 REVERT JUMPDEST PUSH1 0x0 PUSH1 0x1F NOT PUSH1 0x1F DUP4 ADD AND SWAP1 POP SWAP2 SWAP1 POP JUMP JUMPDEST PUSH32 0x4E487B7100000000000000000000000000000000000000000000000000000000 PUSH1 0x0 MSTORE PUSH1 0x41 PUSH1 0x4 MSTORE PUSH1 0x24 PUSH1 0x0 REVERT JUMPDEST PUSH2 0x477 DUP3 PUSH2 0x42E JUMP JUMPDEST DUP2 ADD DUP2 DUP2 LT PUSH8 0xFFFFFFFFFFFFFFFF DUP3 GT OR ISZERO PUSH2 0x496 JUMPI PUSH2 0x495 PUSH2 0x43F JUMP JUMPDEST JUMPDEST DUP1 PUSH1 0x40 MSTORE POP POP POP JUMP JUMPDEST PUSH1 0x0 PUSH2 0x4A9 PUSH2 0x410 JUMP JUMPDEST SWAP1 POP PUSH2 0x4B5 DUP3 DUP3 PUSH2 0x46E JUMP JUMPDEST SWAP2 SWAP1 POP JUMP JUMPDEST PUSH1 0x0 PUSH8 0xFFFFFFFFFFFFFFFF DUP3 GT ISZERO PUSH2 0x4D5 JUMPI PUSH2 0x4D4 PUSH2 0x43F JUMP JUMPDEST JUMPDEST PUSH2 0x4DE DUP3 PUSH2 0x42E JUMP JUMPDEST SWAP1 POP PUSH1 0x20 DUP2 ADD SWAP1 POP SWAP2 SWAP1 POP JUMP JUMPDEST DUP3 DUP2 DUP4 CALLDATACOPY PUSH1 0x0 DUP4 DUP4 ADD MSTORE POP POP POP JUMP JUMPDEST PUSH1 0x0 PUSH2 0x50D PUSH2 0x508 DUP5 PUSH2 0x4BA JUMP JUMPDEST PUSH2 0x49F JUMP JUMPDEST SWAP1 POP DUP3 DUP2 MSTORE PUSH1 0x20 DUP2 ADD DUP5 DUP5 DUP5 ADD GT ISZERO PUSH2 0x529 JUMPI PUSH2 0x528 PUSH2 0x429 JUMP JUMPDEST JUMPDEST PUSH2 0x534 DUP5 DUP3 DUP6 PUSH2 0x4EB JUMP JUMPDEST POP SWAP4 SWAP3 POP POP POP JUMP JUMPDEST PUSH1 0x0 DUP3 PUSH1 0x1F DUP4 ADD SLT PUSH2 0x551 JUMPI PUSH2 0x550 PUSH2 0x424 JUMP JUMPDEST JUMPDEST DUP2 CALLDATALOAD PUSH2 0x561 DUP5 DUP3 PUSH1 0x20 DUP7 ADD PUSH2 0x4FA JUMP JUMPDEST SWAP2 POP POP SWAP3 SWAP2 POP POP JUMP JUMPDEST PUSH1 0x0 PUSH1 0x20 DUP3 DUP5 SUB SLT ISZERO PUSH2 0x580 JUMPI PUSH2 0x57F PUSH2 0x41A JUMP JUMPDEST JUMPDEST PUSH1 0x0 DUP3 ADD CALLDATALOAD PUSH8 0xFFFFFFFFFFFFFFFF DUP2 GT ISZERO PUSH2 0x59E JUMPI PUSH2 0x59D PUSH2 0x41F JUMP JUMPDEST JUMPDEST PUSH2 0x5AA DUP5 DUP3 DUP6 ADD PUSH2 0x53C JUMP JUMPDEST SWAP2 POP POP SWAP3 SWAP2 POP POP JUMP JUMPDEST PUSH1 0x0 PUSH20 0xFFFFFFFFFFFFFFFFFFFFFFFFFFFFFFFFFFFFFFFF DUP3 AND SWAP1 POP SWAP2 SWAP1 POP JUMP JUMPDEST PUSH1 0x0 PUSH2 0x5DE DUP3 PUSH2 0x5B3 JUMP JUMPDEST SWAP1 POP SWAP2 SWAP1 POP JUMP JUMPDEST PUSH2 0x5EE DUP2 PUSH2 0x5D3 JUMP JUMPDEST DUP2 EQ PUSH2 0x5F9 JUMPI PUSH1 0x0 DUP1 REVERT JUMPDEST POP JUMP JUMPDEST PUSH1 0x0 DUP2 CALLDATALOAD SWAP1 POP PUSH2 0x60B DUP2 PUSH2 0x5E5 JUMP JUMPDEST SWAP3 SWAP2 POP POP JUMP JUMPDEST PUSH1 0x0 DUP2 SWAP1 POP SWAP2 SWAP1 POP JUMP JUMPDEST PUSH2 0x624 DUP2 PUSH2 0x611 JUMP JUMPDEST DUP2 EQ PUSH2 0x62F JUMPI PUSH1 0x0 DUP1 REVERT JUMPDEST POP JUMP JUMPDEST PUSH1 0x0 DUP2 CALLDATALOAD SWAP1 POP PUSH2 0x641 DUP2 PUSH2 0x61B JUMP JUMPDEST SWAP3 SWAP2 POP POP JUMP JUMPDEST PUSH1 0x0 DUP1 PUSH1 0x40 DUP4 DUP6 SUB SLT ISZERO PUSH2 0x65E JUMPI PUSH2 0x65D PUSH2 0x41A JUMP JUMPDEST JUMPDEST PUSH1 0x0 PUSH2 0x66C DUP6 DUP3 DUP7 ADD PUSH2 0x5FC JUMP JUMPDEST SWAP3 POP POP PUSH1 0x20 PUSH2 0x67D DUP6 DUP3 DUP7 ADD PUSH2 0x632 JUMP JUMPDEST SWAP2 POP POP SWAP3 POP SWAP3 SWAP1 POP JUMP JUMPDEST PUSH2 0x690 DUP2 PUSH2 0x611 JUMP JUMPDEST DUP3 MSTORE POP POP JUMP JUMPDEST PUSH2 0x69F DUP2 PUSH2 0x5D3 JUMP JUMPDEST DUP3 MSTORE POP POP JUMP JUMPDEST PUSH1 0x0 DUP2 MLOAD SWAP1 POP SWAP2 SWAP1 POP JUMP JUMPDEST PUSH1 0x0 DUP3 DUP3 MSTORE PUSH1 0x20 DUP3 ADD SWAP1 POP SWAP3 SWAP2 POP POP JUMP JUMPDEST PUSH1 0x0 JUMPDEST DUP4 DUP2 LT ISZERO PUSH2 0x6DF JUMPI DUP1 DUP3 ADD MLOAD DUP2 DUP5 ADD MSTORE PUSH1 0x20 DUP2 ADD SWAP1 POP PUSH2 0x6C4 JUMP JUMPDEST PUSH1 0x0 DUP5 DUP5 ADD MSTORE POP POP POP POP JUMP JUMPDEST PUSH1 0x0 PUSH2 0x6F6 DUP3 PUSH2 0x6A5 JUMP JUMPDEST PUSH2 0x700 DUP2 DUP6 PUSH2 0x6B0 JUMP JUMPDEST SWAP4 POP PUSH2 0x710 DUP2 DUP6 PUSH1 0x20 DUP7 ADD PUSH2 0x6C1 JUMP JUMPDEST PUSH2 0x719 DUP2 PUSH2 0x42E JUMP JUMPDEST DUP5 ADD SWAP2 POP POP SWAP3 SWAP2 POP POP JUMP JUMPDEST PUSH1 0x0 PUSH1 0x80 DUP4 ADD PUSH1 0x0 DUP4 ADD MLOAD PUSH2 0x73C PUSH1 0x0 DUP7 ADD DUP3 PUSH2 0x687 JUMP JUMPDEST POP PUSH1 0x20 DUP4 ADD MLOAD PUSH2 0x74F PUSH1 0x20 DUP7 ADD DUP3 PUSH2 0x687 JUMP JUMPDEST POP PUSH1 0x40 DUP4 ADD MLOAD PUSH2 0x762 PUSH1 0x40 DUP7 ADD DUP3 PUSH2 0x696 JUMP JUMPDEST POP PUSH1 0x60 DUP4 ADD MLOAD DUP5 DUP3 SUB PUSH1 0x60 DUP7 ADD MSTORE PUSH2 0x77A DUP3 DUP3 PUSH2 0x6EB JUMP JUMPDEST SWAP2 POP POP DUP1 SWAP2 POP POP SWAP3 SWAP2 POP POP JUMP JUMPDEST PUSH1 0x0 PUSH1 0x20 DUP3 ADD SWAP1 POP DUP2 DUP2 SUB PUSH1 0x0 DUP4 ADD MSTORE PUSH2 0x7A1 DUP2 DUP5 PUSH2 0x724 JUMP JUMPDEST SWAP1 POP SWAP3 SWAP2 POP POP JUMP JUMPDEST PUSH2 0x7B2 DUP2 PUSH2 0x611 JUMP JUMPDEST DUP3 MSTORE POP POP JUMP JUMPDEST PUSH1 0x0 PUSH1 0x20 DUP3 ADD SWAP1 POP PUSH2 0x7CD PUSH1 0x0 DUP4 ADD DUP5 PUSH2 0x7A9 JUMP JUMPDEST SWAP3 SWAP2 POP POP JUMP JUMPDEST PUSH32 0x4E487B7100000000000000000000000000000000000000000000000000000000 PUSH1 0x0 MSTORE PUSH1 0x11 PUSH1 0x4 MSTORE PUSH1 0x24 PUSH1 0x0 REVERT JUMPDEST PUSH1 0x0 PUSH2 0x80D DUP3 PUSH2 0x611 JUMP JUMPDEST SWAP2 POP PUSH32 0xFFFFFFFFFFFFFFFFFFFFFFFFFFFFFFFFFFFFFFFFFFFFFFFFFFFFFFFFFFFFFFFF DUP3 SUB PUSH2 0x83F JUMPI PUSH2 0x83E PUSH2 0x7D3 JUMP JUMPDEST JUMPDEST PUSH1 0x1 DUP3 ADD SWAP1 POP SWAP2 SWAP1 POP JUMP JUMPDEST PUSH32 0x4E487B7100000000000000000000000000000000000000000000000000000000 PUSH1 0x0 MSTORE PUSH1 0x22 PUSH1 0x4 MSTORE PUSH1 0x24 PUSH1 0x0 REVERT JUMPDEST PUSH1 0x0 PUSH1 0x2 DUP3 DIV SWAP1 POP PUSH1 0x1 DUP3 AND DUP1 PUSH2 0x891 JUMPI PUSH1 0x7F DUP3 AND SWAP2 POP JUMPDEST PUSH1 0x20 DUP3 LT DUP2 SUB PUSH2 0x8A4 JUMPI PUSH2 0x8A3 PUSH2 0x84A JUMP JUMPDEST JUMPDEST POP SWAP2 SWAP1 POP JUMP JUMPDEST PUSH1 0x0 DUP2 SWAP1 POP DUP2 PUSH1 0x0 MSTORE PUSH1 0x20 PUSH1 0x0 KECCAK256 SWAP1 POP SWAP2 SWAP1 POP JUMP JUMPDEST PUSH1 0x0 PUSH1 0x20 PUSH1 0x1F DUP4 ADD DIV SWAP1 POP SWAP2 SWAP1 POP JUMP JUMPDEST PUSH1 0x0 DUP3 DUP3 SHL SWAP1 POP SWAP3 SWAP2 POP POP JUMP JUMPDEST PUSH1 0x0 PUSH1 0x8 DUP4 MUL PUSH2 0x90C PUSH32 0xFFFFFFFFFFFFFFFFFFFFFFFFFFFFFFFFFFFFFFFFFFFFFFFFFFFFFFFFFFFFFFFF DUP3 PUSH2 0x8CF JUMP JUMPDEST PUSH2 0x916 DUP7 DUP4 PUSH2 0x8CF JUMP JUMPDEST SWAP6 POP DUP1 NOT DUP5 AND SWAP4 POP DUP1 DUP7 AND DUP5 OR SWAP3 POP POP POP SWAP4 SWAP3 POP POP POP JUMP JUMPDEST PUSH1 0x0 DUP2 SWAP1 POP SWAP2 SWAP1 POP JUMP JUMPDEST PUSH1 0x0 PUSH2 0x953 PUSH2 0x94E PUSH2 0x949 DUP5 PUSH2 0x611 JUMP JUMPDEST PUSH2 0x92E JUMP JUMPDEST PUSH2 0x611 JUMP JUMPDEST SWAP1 POP SWAP2 SWAP1 POP JUMP JUMPDEST PUSH1 0x0 DUP2 SWAP1 POP SWAP2 SWAP1 POP JUMP JUMPDEST PUSH2 0x96D DUP4 PUSH2 0x938 JUMP JUMPDEST PUSH2 0x981 PUSH2 0x979 DUP3 PUSH2 0x95A JUMP JUMPDEST DUP5 DUP5 SLOAD PUSH2 0x8DC JUMP JUMPDEST DUP3 SSTORE POP POP POP POP JUMP JUMPDEST PUSH1 0x0 SWAP1 JUMP JUMPDEST PUSH2 0x996 PUSH2 0x989 JUMP JUMPDEST PUSH2 0x9A1 DUP2 DUP5 DUP5 PUSH2 0x964 JUMP JUMPDEST POP POP POP JUMP JUMPDEST JUMPDEST DUP2 DUP2 LT ISZERO PUSH2 0x9C5 JUMPI PUSH2 0x9BA PUSH1 0x0 DUP3 PUSH2 0x98E JUMP JUMPDEST PUSH1 0x1 DUP2 ADD SWAP1 POP PUSH2 0x9A7 JUMP JUMPDEST POP POP JUMP JUMPDEST PUSH1 0x1F DUP3 GT ISZERO PUSH2 0xA0A JUMPI PUSH2 0x9DB DUP2 PUSH2 0x8AA JUMP JUMPDEST PUSH2 0x9E4 DUP5 PUSH2 0x8BF JUMP JUMPDEST DUP2 ADD PUSH1 0x20 DUP6 LT ISZERO PUSH2 0x9F3 JUMPI DUP2 SWAP1 POP JUMPDEST PUSH2 0xA07 PUSH2 0x9FF DUP6 PUSH2 0x8BF JUMP JUMPDEST DUP4 ADD DUP3 PUSH2 0x9A6 JUMP JUMPDEST POP POP JUMPDEST POP POP POP JUMP JUMPDEST PUSH1 0x0 DUP3 DUP3 SHR SWAP1 POP SWAP3 SWAP2 POP POP JUMP JUMPDEST PUSH1 0x0 PUSH2 0xA2D PUSH1 0x0 NOT DUP5 PUSH1 0x8 MUL PUSH2 0xA0F JUMP JUMPDEST NOT DUP1 DUP4 AND SWAP2 POP POP SWAP3 SWAP2 POP POP JUMP JUMPDEST PUSH1 0x0 PUSH2 0xA46 DUP4 DUP4 PUSH2 0xA1C JUMP JUMPDEST SWAP2 POP DUP3 PUSH1 0x2 MUL DUP3 OR SWAP1 POP SWAP3 SWAP2 POP POP JUMP JUMPDEST PUSH2 0xA5F DUP3 PUSH2 0x6A5 JUMP JUMPDEST PUSH8 0xFFFFFFFFFFFFFFFF DUP2 GT ISZERO PUSH2 0xA78 JUMPI PUSH2 0xA77 PUSH2 0x43F JUMP JUMPDEST JUMPDEST PUSH2 0xA82 DUP3 SLOAD PUSH2 0x879 JUMP JUMPDEST PUSH2 0xA8D DUP3 DUP3 DUP6 PUSH2 0x9C9 JUMP JUMPDEST PUSH1 0x0 PUSH1 0x20 SWAP1 POP PUSH1 0x1F DUP4 GT PUSH1 0x1 DUP2 EQ PUSH2 0xAC0 JUMPI PUSH1 0x0 DUP5 ISZERO PUSH2 0xAAE JUMPI DUP3 DUP8 ADD MLOAD SWAP1 POP JUMPDEST PUSH2 0xAB8 DUP6 DUP3 PUSH2 0xA3A JUMP JUMPDEST DUP7 SSTORE POP PUSH2 0xB20 JUMP JUMPDEST PUSH1 0x1F NOT DUP5 AND PUSH2 0xACE DUP7 PUSH2 0x8AA JUMP JUMPDEST PUSH1 0x0 JUMPDEST DUP3 DUP2 LT ISZERO PUSH2 0xAF6 JUMPI DUP5 DUP10 ADD MLOAD DUP3 SSTORE PUSH1 0x1 DUP3 ADD SWAP2 POP PUSH1 0x20 DUP6 ADD SWAP5 POP PUSH1 0x20 DUP2 ADD SWAP1 POP PUSH2 0xAD1 JUMP JUMPDEST DUP7 DUP4 LT ISZERO PUSH2 0xB13 JUMPI DUP5 DUP10 ADD MLOAD PUSH2 0xB0F PUSH1 0x1F DUP10 AND DUP3 PUSH2 0xA1C JUMP JUMPDEST DUP4 SSTORE POP JUMPDEST PUSH1 0x1 PUSH1 0x2 DUP9 MUL ADD DUP9 SSTORE POP POP POP JUMPDEST POP POP POP POP POP POP JUMP INVALID LOG2 PUSH5 0x6970667358 0x22 SLT KECCAK256 0x2F GASLIMIT 0xE6 0x5C LOG2 PUSH17 0xEFA08ADB7EC3C37AF37DB7BC3D21E71BFE 0xFB SWAP5 0xF9 0xA9 0xCF CALLDATACOPY 0x25 XOR 0x4D PUSH5 0x736F6C6343 STOP ADDMOD SGT STOP CALLER "},"methodIdentifiers":{"currentBalance()":"ce845d1d","getPayment(address,uint256)":"977a767c","pay(string)":"2b66d72e"}}}}}